:020000040800F2
:10000000500E00207927000891050008930500088C
:10001000970500089B0500089F05000800000000E8
:10002000000000000000000000000000A305000820
:10003000A505000800000000A7050008A9050008A4
:1000400093270008932700089327000893270008A8
:100050009327000893270008932700089327000898
:100060009327000893270008932700089327000888
:100070009327000893270008932700089327000878
:10008000E30500089327000893270008932700083A
:10009000B905000893270008932700089327000854
:1000A0009327000893270008932700089327000848
:1000B0009327000893270008932700089327000838
:1000C0009327000893270008932700089327000828
:1000D00093270008B305000893270008B50500081A
:1000E0009327000893270008932700089327000808
:1000F00093270008932700089327000893270008F8
:1001000093270008932700089327000893270008E7
:1001100093270008B70500089327000893270008D5
:1001200093270008932700089327000893270008C7
:1001300093270008932700089327000893270008B7
:10014000C305000893270008932700089327000899
:100150009327000893270008932700089327000897
:100160009327000893270008932700089327000887
:100170009327000893270008932700089327000877
:10018000932700089327000800F002F800F03EF8DB
:100190000AA090E8000C82448344AAF10107DA45E2
:1001A00001D100F033F8AFF2090EBAE80F0013F0F6
:1001B000010F18BFFB1A43F001031847A0500000BD
:1001C000C0500000103A24BF78C878C1FAD852074E
:1001D00024BF30C830C144BF04680C6070470000C1
:1001E0000023002400250026103A28BF78C1FBD840
:1001F000520728BF30C148BF0B6070471FB504F0DD
:1002000025FE04F0BFF91FBD10B510BD04F0E0F9E4
:100210001146FFF7F3FF00F0C0F804F0FEF903B455
:10022000FFF7F2FF03BC04F0FFF90000B0EE401A44
:1002300030EEC10ABF4880ED000A90ED000AB5EE2D
:10024000C00AF1EE10FA02DD90ED000A04E0B948B0
:1002500090ED000AB1EE400AF2EE041AB4EEE10AA3
:10026000F1EE10FA24DDB34890ED000AD0ED011A4A
:1002700030EE610AB048D0ED001A20EE210AAD48F8
:10028000D0ED021A90ED012AF0EE002A42EEC21AD9
:1002900090ED002A71EE821AA84890ED002A02EE35
:1002A000210AA748D0ED001A30EE210A80ED000A9D
:1002B000A04890ED010A80ED020A90ED000A80ED61
:1002C000010A9F4890ED000ADFED9E1AB4EEE10AA4
:1002D000F1EE10FA03DD9FED9B0A80ED000A9848CD
:1002E00090ED000ADFED981AB4EEE10AF1EE10FA93
:1002F00003D29FED950A80ED000A914890ED000A27
:1003000070470168A1F50072013A45D18F4909781B
:10031000491C8E4A117011460978142901D1002117
:100320001170017BC27A41EA0221894A11601146AB
:100330000968B1F5FA6F0BDA8649096841F288322B
:10034000914205DD84490968491C834A11600FE028
:100350007F49096841F28832914209DD7D49096887
:10036000B1F5FA6F04DA7C490968491E7A4A1160CE
:1003700077490968774A116077490968C1EB4131CB
:10038000734A12681144754A11607049097819B9A5
:1003900011460968724A116070472DED028B0020EA
:1003A00008EE100A08EE900A00266E4800F03DF9AB
:1003B0004FF4FA616C4800F0EAF900216B4800F054
:1003C00076FC4FF4FA61684800F0E1F9332201212C
:1003D000664800F0A6FC4FF4FA61634800F0D7F9D4
:1003E0000321634803F02CFB1021624803F028FB33
:1003F0008021604803F024FB80215D4803F020FB4E
:100400004FF480615A4803F01BFB92E05648008885
:10041000012802DB00205449088053484088022804
:100420000BDB554801F072F9534801F064FA534868
:1004300001F004FE00204C4948804B48C088052844
:1004400002DB00204849C880474840890A2814DB5D
:100450004B48C08BA0F57A7000EB400000B208EE6C
:10046000100A4748808BA0F57A7000EB800000B23C
:1004700008EE900A00203C4948813B4880891428B6
:100480002CDB404890ED000AF8EEC00A334890EDAE
:10049000000AB8EEC00AFFF7C9FEBDEEC00A10EEB2
:1004A000100A00B238490880344801F02CFE054695
:1004B000324801F02CFE0446F8EEE81A00EE104A2D
:1004C000B8EEC01AF8EEC80A00EE105AB8EEC00A2C
:1004D0002E4801F030FB0020234988812248C08942
:1004E000322802DB00202049C8811F48008AB0F56D
:1004F000FA7F1EDB701C86B2032E08D110211D4826
:1005000003F09EFA80211B4803F09AFA0426072E76
:100510000CD10821174803F091FA1021154803F077
:100520008DFA8021134803F089FA002600200E4935
:1005300008826BE79400002044000020480000205F
:100540003C00002000409C4500409CC5300000203D
:1005500020000020240000201800002004000020BB
:100560000800002054000020C00000205D00002092
:1005700000100240000C024030010020C4010020A5
:10058000E800002000000020320000208C01002044
:10059000704700BFFEE700BFFEE700BFFEE700BFF9
:1005A000FEE770477047704710B5174800F0BFF876
:1005B00010BD70477047704710B5144800F073FACB
:1005C00010BD10B50221124802F077FE40B10221A1
:1005D0000F4802F00CFF0F4A00210D4802F0EBFC1F
:1005E00010BD10B50C490D4803F0D9F850B10C49B5
:1005F0000A4803F0A3F80849084803F0F9F8094845
:1006000001F0FCFB10BD0000C0000020D400002061
:1006100000680040AC000020008800208860024094
:1006200000080020C4010020704710B504464FF4B4
:10063000A06002F0C7F90E4800F02BF80D4800F05A
:1006400058FD2A210C4800F099FF0C4800F053F99E
:100650000B4800F04EFA0B4800F0B7FC0A4800F0D7
:10066000B2F810BD00B50948FFF7DEFF00BD00007D
:10067000C00000205E00002030010020D4000020D7
:100680005D000020E80000205C00002054000020F5
:1006900070472DE9FF410546684603F04AFD4FF4D7
:1006A0007A710198B0FBF1F4E4082146481EB0F1DC
:1006B000807F00D31BE0481E4FF0E02250615017AE
:1006C0000F22002807DA13071F0E3A4B00F00F061F
:1006D000361F9F5503E013071E0E374B1E5400BFF5
:1006E00000204FF0E02290610720106100BF6FF002
:1006F000040002F0BAF9BDE8FF8110B502462F4BA5
:1007000019684FF0E0235B694FF0E024A4691B1BDC
:100710004FF47A7463434FF0E0246469B3FBF4F35D
:1007200001EB4104C4EBC11403EBC40010BD234929
:100730000968491C214A11600188491C01804188CF
:10074000491C41808188491C8180C188491CC18025
:100750000189491C01814189491C41818189491CC8
:100760008181C189491CC181018A491C018270476C
:1007700070B505460C462846FFF7BFFF064600BF8A
:100780002846FFF7BAFF801BA042F9D370BD30B5F1
:1007900005460C4604E04FF47A712846FFF7E8FF5F
:1007A0002000A4F10104F6D130BD00B50448FFF7E4
:1007B0006FFF00BD18ED00E000E400E058000020ED
:1007C000C000002070471CB504460121082003F03A
:1007D00081FD01208DF8040000208DF80600012025
:1007E0008DF805009820009069463F4803F0AAF86C
:1007F00008213D4803F022F910213B4803F01EF97F
:100800008021394803F01AF90121102003F062FD1C
:1008100001208DF8040000208DF8060001208DF8DD
:10082000050040F2835000906946304803F08AF892
:1008300080212E4803F002F94FF480712B4803F019
:10084000FDF84FF48061294803F0F8F801212748AA
:1008500003F0F4F80221254803F0F0F81CBD2DE95F
:10086000F04107460D462E4615F0070F18D000241C
:1008700014E015F0010F07D0A01D0122824091B2B3
:10088000194803F0DDF806E0A01D0122824091B274
:10089000154803F0D3F86D10601CC4B2032CE8DBDC
:1008A00016F0380F18D0002414E016F0010F07D00E
:1008B000A01D0122824091B20C4803F0C1F806E06D
:1008C000A01D0122824091B2084803F0B7F87610CB
:1008D000601CC4B2032CE8DBBDE8F08100B504481D
:1008E000FFF770FF00BD0000000C02400010024046
:1008F0005C000020704710B58AB004460121082032
:1009000003F0E8FC0121480603F02DFD03200890C8
:1009100002208DF8240000208DF8260003208DF899
:10092000250001208DF8270008A96D4803F00AF87A
:10093000092201216A4803F090F809220021684841
:1009400003F08BF800208DF81A008DF81B008DF84D
:100950001C0001208DF81D0000208DF81E008DF870
:100960001F008DF816008DF8170008208DF818006C
:1009700003208DF81900ADF8140005A9594802F0BC
:10098000ACF800208DF80E008DF80F0001208DF8D6
:1009900010000020ADF80400ADF80600ADF8080026
:1009A000ADF80A00ADF80C0001208DF8110001A887
:1009B00002F01DF9012202214A4802F017FC14201E
:1009C0008DF8000000208DF801008DF80200012054
:1009D0008DF80300684601F0FAFF0AB010BD2DE95A
:1009E000F04385B081460C4615461E4600274FF45D
:1009F0000070009000208DF808008DF80900082094
:100A00008DF80A00200A8DF80B00E1B28DF80C1069
:100A1000290A8DF80D10E9B28DF80E10310A8DF803
:100A20000F10F1B28DF8101000218DF811108DF813
:100A3000121069462B4802F0C9F9804601E0781C83
:100A400087B24146274802F059FA18B940F6FF70BC
:100A50008742F4DB40F6FF70874203DB012005B0DC
:100A6000BDE8F0830020FAE770B586B006460D4673
:100A700000211C4802F022FB10B9002006B070BD16
:100A800001AA0021174802F096FA002404E00DF1B3
:100A90000F00005D2855641C9DF80E00A042F6D89A
:100AA0009DF80E00EAE710B5044602210D4802F059
:100AB00004FC78B102210B4802F099FC2246002187
:100AC000084802F078FA2146074801F00BF9204661
:100AD000FFF717FC10BD00B50448FFF70BFF00BD82
:100AE000000C024000640040C4010020D40000203B
:100AF000704710B58AB004460121022003F0EAFBDA
:100B00000121480603F02FFC0121880603F02BFC8D
:100B10004FF44050089002208DF8240000208DF8FA
:100B2000260003208DF8250001208DF8270008A954
:100B3000FD4802F007FF09220D21FB4802F08DFF5E
:100B400009220C21F84802F088FF00208DF81A00D5
:100B50008DF81B008DF81C008DF81D008DF81E000F
:100B600001208DF81F0000208DF816008DF8170069
:100B700008208DF8180003208DF81900ADF8140036
:100B800005A9EA4801F0A9FF1B208DF80E000020FE
:100B90008DF80F0001208DF810000020ADF8040042
:100BA000ADF80600ADF80800ADF80A00ADF80C008D
:100BB00001208DF8110001A802F019F8012202218C
:100BC000DA4802F013FB40208DF8000000208DF879
:100BD000010001208DF802008DF80300684601F045
:100BE000F6FE0AB010BD2DE9F04385B081460C46F3
:100BF00015461E4600274FF40070009000208DF827
:100C000008008DF8090008208DF80A00200A8DF8E8
:100C10000B00E1B28DF80C10290A8DF80D10E9B225
:100C20008DF80E10310A8DF80F10F1B28DF81010FA
:100C300000218DF811108DF812106946BB4802F0A2
:100C4000C5F8804601E0781C87B24146B74802F0FB
:100C500055F918B940F6FF708742F4DB40F6FF7093
:100C6000874203DB012005B0BDE8F0830020FAE7EE
:100C700070B586B006460D460021AC4802F01EFA5B
:100C800010B9002006B070BD01AA0021A74802F0EB
:100C900092F9002404E00DF10F00005D2855641C5A
:100CA0009DF80E00A042F6D89DF80E00EAE7F0B5D8
:100CB00085B007460D46002400208DF808008DF809
:100CC000090008208DF80A00009555208DF80B00CA
:100CD00055218DF80C108DF80D108DF80E108DF833
:100CE0000F108DF810108DF811108DF81210694644
:100CF0008E4802F06BF8064601E0601C84B2314673
:100D00008A4802F0FBF818B940F6FF708442F4DB21
:100D100040F6FF70844202DB012005B0F0BD0020E8
:100D2000FBE770B586B005460E46144600208DF8E8
:100D30000C008DF80D0008208DF80E000196112C86
:100D400006D0222C04D0332C02D0442C00D0112405
:100D50008DF80F4055218DF810108DF811108DF879
:100D600012108DF813108DF814108DF815108DF8E1
:100D700016100020287001A96C4802F027F806B070
:100D800070BD70B586B005460E46144600208DF83D
:100D90000C008DF80D0008208DF80E00019641F230
:100DA0008830844201DD044603E06148844200DA71
:100DB0000446200A8DF80F008DF8104055218DF85B
:100DC00011108DF812108DF813108DF814108DF885
:100DD00015108DF816100020287001A9534801F055
:100DE000F5FF06B070BD70B586B005460E461446D8
:100DF00000208DF80C008DF80D0008208DF80E00F5
:100E00000196B4F5FA6F02DD4FF4FA6403E014F5CD
:100E1000FA6F00DA474C200A8DF80F008DF8104069
:100E200055218DF811108DF812108DF813108DF8D2
:100E300014108DF815108DF816100020287001A9D7
:100E40003A4801F0C3FF06B070BD2DE9F04385B00C
:100E50008146884614461D46002700208DF808006C
:100E60008DF8090008208DF80A00CDF8008041F2C5
:100E70008830844201DD044603E02D48844200DAD4
:100E80000446B5F57A7F02DD4FF47A7503E015F577
:100E90007A7F00DA284D200A8DF80B00E1B28DF838
:100EA0000C10290A8DF80D10E9B28DF80E1055219D
:100EB0008DF80F108DF810108DF811108DF812109C
:100EC00069461A4801F082FF064601E0781C87B2A5
:100ED0003146164802F012F818B940F6FF70874202
:100EE000F4DB40F6FF70874203DB012005B0BDE86C
:100EF000F0830020FAE72DE9F04186B007468846E6
:100F000015461E460C9C00208DF80C008DF80D0037
:100F100008208DF80E00CDF8048041F2883085421B
:100F20000CDD05460EE000000004024000680040B1
:100F300078ECFFFF30F8FFFF18FCFFFF1D488542EB
:100F400000DA0546B6F57A7F02DD4FF47A7603E0E3
:100F500016F57A7F00DA184E1848844201DD0446FF
:100F600004E016484042844200DA0446280A8DF81C
:100F70000F008DF81050310A8DF811108DF81260A5
:100F8000210E8DF81310210C8DF81410210A8DF804
:100F900015108DF816400020387001A9084801F09E
:100FA00015FF06B0BDE8F08100B50648FFF7A0FDCB
:100FB00000BD000078ECFFFF18FCFFFF404B4C0029
:100FC000006800405D000020704710B596B00446F0
:100FD0000121414803F07EF90121480403F0C3F9DF
:100FE000072206213D4802F038FD402010900220E3
:100FF0008DF8440000208DF8460003208DF8450050
:1010000000208DF8470010A9344802F09BFC3448BA
:1010100002F05CFD334812900020ADF84C00ADF8B2
:101020004E004FF48060ADF850000420ADF852003F
:101030000020ADF8540012A9294802F0AEFD0121AC
:10104000274802F032FE01224021254802F0DAFE54
:1010500010208DF83C0001208DF83D0002208DF815
:101060003E0001208DF83F000FA801F0B0FC1E48A3
:1010700002F010FA4FF0006000901948001D019036
:1010800002940020039012200490002005904FF459
:10109000806006900020079008904FF480700990BF
:1010A0004FF440300A9000200B900C900D900E9061
:1010B00069460D4802F090FA012210210A4802F018
:1010C00051FB0121084802F0C1FA16B010BD00B56D
:1010D0000648FFF779FF00BD08002000000C024021
:1010E00000440040A086010088600240E800002023
:1010F00070471CB504460121022003F0EBF80120E3
:101100008DF804008DF8060003208DF805000020FE
:101110008DF80700C02000906946F74802F012FCE5
:101120001CBD00BF00BF00BF00BF00BF00BF7047B5
:1011300000B501464020F04A1A3210800846FFF7F9
:10114000F0FF8020EC4A1A3210800846FFF7E9FFD2
:101150004020E94A183210800846FFF7E2FF80205D
:10116000E54A183210800846FFF7DBFF00BD10B5D6
:10117000044600234020E0491A3108802046FFF74A
:10118000D0FF8020DC49183108802046FFF7C9FFD6
:101190004020D949183108802046FFF7C2FF08E0F7
:1011A000581CC3B2322B04DD2046FFF7C1FF0120DB
:1011B00010BDD1481030006810F0800FF0D14020F1
:1011C000CD491A3108802046FFF7ABFF0020EFE73A
:1011D00010B5024608231DE04020C74C1A34208079
:1011E0001046FFF79EFF11F0800F03D08020A41E51
:1011F000208003E08020C04C1A3420804806010E75
:101200001046FFF78EFF4020BB4C1834208010465C
:10121000FFF787FF1800A3F10104E3B2DCD14020FF
:10122000B54C1A34208010BD00B501468020B24A6A
:1012300018321080402010800846FFF772FFAE4839
:101240001030006808B9012000E0002010F0800F85
:1012500001D0002000BD8020A74A1A321080084625
:10126000FFF75FFFA4481030006810F0800F01D036
:101270000020EFE78020A04A1A3210800846FFF7CE
:1012800050FF0120E6E7F0B507460C4615461E461E
:101290003846FFF7C9FF6006010E3846FFF798FF92
:1012A0003846FFF764FF20B13846FFF741FF0120C1
:1012B000F0BD29463846FFF78BFF3846FFF757FF4A
:1012C00031463846FFF784FF3846FFF750FF38466F
:1012D000FFF72EFF0020EBE700B501464020864ACD
:1012E0001A3210800846FFF71CFF8020824A18320D
:1012F00010800846FFF715FF40207F4A1832108003
:101300000846FFF70EFF40207B4A1A32108008463D
:10131000FFF707FF00BD00B501464020764A1A32AC
:1013200010800846FFF7FDFE8020734A1A321080B5
:101330000846FFF7F6FE40206F4A18321080084634
:10134000FFF7EFFE40206C4A1A3210800846FFF784
:10135000E8FE00BD70B505460C4608260023802037
:1013600065491831088017E05806030E402062498D
:101370001A3108802846FFF7D4FE40205E49183114
:1013800008802846FFF7CDFE5B481030006810F05B
:10139000800F01D043F001033000A6F10101CEB26D
:1013A000E2D1402054491A3108801CB12846FFF789
:1013B000B2FF02E02846FFF78FFF184670BDF0B578
:1013C00007460C4615461E463846FFF72DFF6006B9
:1013D000010E3846FFF7FCFE3846FFF7C8FE20B185
:1013E0003846FFF7A5FE0120F0BD29463846FFF735
:1013F000EFFE3846FFF7BBFE3846FFF715FF01202A
:1014000000EB4400C1B23846FFF7E2FE3846FFF772
:10141000AEFE00213846FFF79DFF30703846FFF7DB
:1014200087FE0020E0E72DE9F04180460C46154696
:101430001E46069F4046FFF7F7FE6006010E404637
:10144000FFF7C6FE4046FFF792FE28B14046FFF781
:101450006FFE0120BDE8F08129464046FFF7B8FE47
:101460004046FFF784FE07E017F8011B4046FFF7F0
:10147000AFFE4046FFF77BFE3000A6F10101CEB281
:10148000F2D14046FFF754FE0020E3E72DE9F0419A
:1014900080460D4617461C46069E4046FFF7C4FE92
:1014A0006806010E4046FFF793FE4046FFF75FFED9
:1014B00028B14046FFF73CFE0120BDE8F0813946E7
:1014C0004046FFF785FE4046FFF751FE4046FFF7D6
:1014D000ABFE012000EB4500C1B24046FFF778FEAD
:1014E0004046FFF744FE11E0012C07D100214046A1
:1014F000FFF730FF307006E0000402400121404653
:10150000FFF728FF3070761C601EC4B2002CEBD1B0
:101510004046FFF70DFE0020CFE700B50148FFF77A
:10152000E7FD00BD5E00002010B504462046FFF731
:10153000DFFD044604F1100003F08AF8A0F1100466
:1015400004F11C0003F084F8A0F11C0404F138003D
:1015500003F07EF8A0F1380404F1440003F078F8B9
:10156000A0F1440404F1500003F072F8A0F150041B
:10157000002020706070204610BD704770B5064690
:101580000D463046FFF7F9FF2A2D15D006DC052D54
:101590000CD00A2D0CD0142D16D10BE0622D0DD0DD
:1015A000BC2D0DD0B5F5807F0ED10BE006240DE0EB
:1015B00005240BE0042409E0032407E0022405E0ED
:1015C000012403E0002401E0022400BF00BF8023C7
:1015D0006B2269213046FFF756FE0521FE48FFF7D2
:1015E000D6F80023192269213046FFF74CFE032369
:1015F0006B2269213046FFF746FE0223372269211C
:101600003046FFF740FE23461A2269213046FFF795
:101610003AFE18231B2269213046FFF734FE1023BF
:101620001C2269213046FFF72EFE70BD3EB50446F0
:101630002078002868D0E948007810F0010F09D11F
:10164000E64803F04DF828B1E54803F001F8E34817
:10165000AFF30080E3480088B0B99FEDE31ADFEDF7
:10166000E20A9FEDE10A04F1100002F0FDFF9FED98
:10167000DE1ADFEDDD0A9FEDDC0AD94802F0F4FF47
:101680000120D84908803EBD04F13802D44968469B
:1016900002F0F1FFD3480088C8282FD1D048D0ED00
:1016A000000AD048008800EE100AB8EE400A80EE2A
:1016B000801A84ED041ACA48D0ED010AC94800888E
:1016C00000EE100AB8EE400A80EE801A84ED051A8A
:1016D000C348D0ED020AC348008800EE100AB8EEF5
:1016E000400A80EE801A9FEDC10A31EE400A84ED77
:1016F000060A0020BB4908802070C4E7B94800886A
:10170000401CB849088000BF00BFBCE710B50446C4
:1017100004F128033C2269212046FFF750FE04F122
:1017200029033B2269212046FFF749FE94F828103F
:101730002920005D41EA0020404200EE100AB8EE88
:10174000C00AD4ED050A30EE600ABDEEC00A10EE04
:10175000100A01B2A18004F12A033E226921204629
:10176000FFF72DFE04F12B033D2269212046FFF7F0
:1017700026FE2A20015D2B20005D41EA002000EEBC
:10178000100AB8EEC00AD4ED040A30EE600ABDEECD
:10179000C00A10EE100A00B2608004F12C0340224F
:1017A00069212046FFF70BFE04F12D033F2269213A
:1017B0002046FFF704FE2C20015D2D20005D41EA4C
:1017C000002000EE100AB8EEC00AD4ED060A30EE92
:1017D000600ABDEEC00A10EE100A01B2E180B4F951
:1017E000060001EE900AF8EEE11AB0EE611AB4F9C3
:1017F000040001EE900AF8EEE11AF0EE610AB4F985
:10180000020001EE900AF8EEE11AB0EE610A04F16E
:10181000380002F029FF2046FFF708FF10BD3EB553
:1018200004466078002864D07148007810F0010FF9
:1018300009D16F4802F054FF28B16E4802F008FF4A
:101840006B48AFF300806C480088B0B99FED661A12
:10185000DFED650A9FED640A04F11C0002F004FF4D
:101860009FED611ADFED600A9FED5F0A614802F0AB
:10187000FBFE0120604908803EBD04F144025D4941
:10188000684602F0F8FE5C480088C8282BD1594809
:10189000D0ED000A5848008800EE100AB8EE400A61
:1018A00080EE801A84ED071A5248D0ED010A5248A2
:1018B000008800EE100AB8EE400A80EE801A84ED2F
:1018C000081A4C48D0ED020A4B48008800EE100A76
:1018D000B8EE400A80EE801A84ED091A00204649CD
:1018E00008806070C8E744480088401C424908806E
:1018F00000BF00BFC0E710B5044604F12E03442228
:1019000069212046FFF75BFD04F12F034322692183
:101910002046FFF754FD2E20015D2F20005D41EA97
:101920000020404200EE100AB8EEC00AD4ED080ACA
:1019300030EE600ABDEEC00A10EE100A01B26181FD
:1019400004F13003462269212046FFF738FD04F1F7
:101950003103452269212046FFF731FD3020015D2A
:101960003120005D41EA002000EE100AB8EEC00A06
:10197000D4ED070A30EE600ABDEEC00A10EE100A80
:1019800000B2208104F13203482269212046FFF78A
:1019900016FD04F13303472269212046FFF70FFDAE
:1019A0003220015D3320005D41EA002000EE100A84
:1019B000B8EEC00AD4ED090A30EE600ABDEEC00AE6
:1019C00010EE100A01B2A181B4F90C0001EE900AE8
:1019D000F8EEE11A12E00000C000002060000020D4
:1019E0001801002064000020000000000000804575
:1019F00068000020240100206C000020B0EE611A75
:101A0000B4F90A0001EE900AF8EEE11AF0EE610A6C
:101A1000B4F9080001EE900AF8EEE11AB0EE610A9E
:101A200004F1440002F020FE2046FFF7F8FE10BD4E
:101A300070B505460C4604F13801284602F0FAFD5F
:101A4000054670BD70B505460C4604F144012846B4
:101A500002F0F0FD054670BD70B505460C46D4EDAC
:101A6000110A9FED181A60EE810AB0EE600A16485E
:101A700000F0E8FC84ED140AD4ED120A9FED111A6F
:101A800060EE810AB0EE600A0F4800F0DBFC84EDE6
:101A9000150AD4ED130A9FED0B1A60EE810AB0EE21
:101AA000600A094800F0CEFC84ED160A04F15001EA
:101AB000284602F0BFFD054670BD10B50348FFF78C
:101AC00033FD10BD8DC1793DE001002030010020C3
:101AD00010B50446204600F0FDF8044604F12C0041
:101AE00000F0F8F8A0F12C049FED720A84ED030ACF
:101AF0009FED700A84ED040A9FED6E0A84ED050ADD
:101B00009FED6C0A84ED060A9FED6A0A84ED070AD0
:101B10009FED680A84ED080A9FED671A9FED670A3A
:101B2000DFED640A84ED0B1A84ED0C0AC4ED0D0A96
:101B300000BF204610BD10B52DED048B0446B0EE5D
:101B4000408AF0EE608AB0EE419AF0EE619A38EE8B
:101B5000C80A84ED030A39EEC90A84ED060A94ED39
:101B6000030AB5EEC00AF1EE10FA02DD94ED030AA5
:101B700003E094ED030AB1EE400AF2EE040AB4EE7B
:101B8000E00AF1EE10FA1FDD94ED030AD4ED040A29
:101B900030EE600AD4ED0B0A20EE200AD4ED050ADF
:101BA00094ED041AF0EE001A41EEC10A94ED031A06
:101BB00070EE810A94ED0C1A01EE200AD4ED090AA8
:101BC00030EE200A84ED090A94ED060AB5EEC00A4B
:101BD000F1EE10FA02DD94ED060A03E094ED060A38
:101BE000B1EE400AF2EE040AB4EEE00AF1EE10FAA9
:101BF0001FDD94ED060AD4ED070A30EE600AD4ED3D
:101C00000B0A20EE200AD4ED080A94ED071AF0EE34
:101C1000001A41EEC10A94ED061A70EE810A94EDA5
:101C20000C1A01EE200AD4ED0A0A30EE200A84EDE7
:101C30000A0A94ED040A84ED050A94ED030A84ED82
:101C4000040A94ED070A84ED080A94ED060A84ED6F
:101C5000070AD4ED090AB0EE600A9FED191ADFED0C
:101C6000190A194800F0D7FBD4ED0A0AB0EE600A51
:101C70009FED131ADFED130A134800F0CCFB94ED2F
:101C80000A0ABDEEC00A10EE100A03B294ED090A6A
:101C9000BDEEC00A10EE100A01B200220B48FEF79A
:101CA0009EFEBDEC048B10BD10B50948FFF710FF78
:101CB00010BD000000000000CDCC4C3D6F12033C75
:101CC00000409C4500409CC56F000020D4000020CF
:101CD0008C0100207047000000210170417041829A
:101CE000818270470A68A2F50072013A02D0022A86
:101CF00040D140E00278012A06D10A7BCB7A42EA41
:101D0000032212B2C2800BE00A7BCB7A42EA0322A2
:101D100012B2C280C2884280C2884281012202700F
:101D2000B0F90620B2F5FA6F0ADAB0F90A2041F2EA
:101D300088339A4204DD428A521C12B242820EE07B
:101D4000B0F9062041F288339A4208DDB0F90A2042
:101D5000B2F5FA6F03DA428A521E12B24282C28888
:101D60004281428AC2EB4232C3881A444388D21A63
:101D700012B2C28140E04278012A06D10A7BCB7AB6
:101D800042EA032212B202810BE00A7BCB7A42EADA
:101D9000032212B202810289828002898281012299
:101DA0004270B0F90820B2F5FA6F0ADAB0F90C20E7
:101DB00041F288339A4204DD828A521C12B2828236
:101DC0000EE0B0F9082041F288339A4208DDB0F9FC
:101DD0000C20B2F5FA6F03DA828A521E12B28282A6
:101DE00002898281828AC2EB423203891A44838843
:101DF000D21A12B2028200BF00BF704710B52DED9B
:101E0000068B0446C6480078C549497840EA012057
:101E1000C0F30A00A0F58060C149488208464078B6
:101E2000C010897840EA4110C0F30A00A0F5806034
:101E3000BB498882084680788011C97840EA8100D1
:101E4000B749097940EA8120C0F30A00A0F5806013
:101E5000B349C882084600794010497940EAC11068
:101E6000C0F30A00A0F58060AD490883B1F9120003
:101E700002F0EDFD41EC100BB0EE40AAF0EE60AACE
:101E80009FEDA80B53EC102B51EC1A0B02F0F6FD52
:101E900041EC100BB0EE409AF0EE609A9FEDA30B70
:101EA00053EC102B51EC190B02F0FAFC41EC100B27
:101EB000B0EE408AF0EE608A51EC180B02F098FD0B
:101EC00001B2974881830146B1F9140002F0BFFDC9
:101ED00041EC100BB0EE40AAF0EE60AA9FED910B22
:101EE00053EC102B51EC1A0B02F0C8FD41EC100B17
:101EF000B0EE409AF0EE609A9FED8C0B53EC102BF5
:101F000051EC190B02F0CCFC41EC100BB0EE408A06
:101F1000F0EE608A51EC180B02F06AFD01B28048C5
:101F2000C1830146B1F9160002F091FD41EC100B9E
:101F3000B0EE40AAF0EE60AA9FED7A0B53EC102BA6
:101F400051EC1A0B02F09AFD41EC100BB0EE409AE6
:101F5000F0EE609A9FED750B53EC102B51EC190BC2
:101F600002F09EFC41EC100BB0EE408AF0EE608A6D
:101F700051EC180B02F03CFD01B2694801840146A6
:101F8000B1F9180002F063FD41EC100BB0EE40AA6D
:101F9000F0EE60AA9FED630B53EC102B51EC1A0B83
:101FA00002F06CFD41EC100BB0EE409AF0EE609A3E
:101FB0009FED5E0B53EC102B51EC190B02F070FCF3
:101FC00041EC100BB0EE408AF0EE608A51EC180B39
:101FD00002F00EFD01B2524841844079C0F3011174
:101FE0004F488176407981094D48C17680794C49C6
:101FF000C97940EA012001B24948C184007A4849C0
:10200000497A40EA012001B245480185807A444975
:10201000C97A40EA012001B241484185017B80F83C
:102020002C10417B80F82D10807B3D49C97B40EA14
:1020300001213B48C185BDEC068B10BD10B504469F
:102040003748B0F91200142190FBF1F000B2E082A1
:102050003348B0F9180090FBF1F000B2208330480B
:10206000B0F9160090FBF1F000B26083B4F91A00E9
:10207000002802DDB4F91A0002E0B4F91A00404267
:10208000012801DC00206083B4F91800002802DD7B
:10209000B4F9180002E0B4F918004042012801DC4C
:1020A00000202083608B218B0844E18A401A03B210
:1020B00041F2883214211F48FEF7C7FE608B218B46
:1020C000401AE18A401A03B241F2883224211948A9
:1020D000FEF7BBFE608B218B0844E18A084403B203
:1020E00041F2883244211348FEF7AFFE608B218B0A
:1020F000401AE18A084403B241F2883234210D4883
:10210000FEF7A3FE10BD0146B1F90E00704701466F
:10211000B1F91000704700B50748FFF7DDFD00BDBD
:10212000E8000020AEB6627FD93DF83F0000000015
:1021300000408F405D000020C4010020F0EE400A06
:10214000F5EEC00AF1EE10FA02DBB0EE600A70475D
:10215000B1EE600AFBE77047B0EE401AB5EEC01A68
:10216000F1EE10FA0BDD31EE600AB5EEC00AF1EEC9
:1021700010FA0FD2DFED871AB0EE610A0AE031EEF5
:10218000200AB5EEC00AF1EE10FA03DDDFED811A88
:10219000B0EE610A7047F0EE400A9FED7F0AF4EE60
:1021A000C00AF1EE10FA04DD9FED7C0A30EEC00AA1
:1021B00070479FED7B0AF4EEC00AF1EE10FA04D2EC
:1021C0009FED760A30EE800AF2E7B0EE600AEFE7A4
:1021D0000146B0EE401AB7EE080AB0EE402AB6EE5D
:1021E000000A21EE000AF0EE401AF0EE410A10EE6D
:1021F000900A6C4AA2EB600000EE900A61EEA02A01
:10220000B7EE080A02EEE00A20EE200AF0EE400ADD
:1022100061EEA02AB7EE080A02EEE00A20EE200ADC
:10222000F0EE400A21EE200A704700B50146B0EEFC
:10223000403AB0EE602AB5EEC03AF1EE10FA07D19E
:10224000B5EEC02AF1EE10FA02D19FED521A99E0D4
:10225000B0EE430AFFF772FFF0EE403AB0EE420AEA
:10226000FFF76CFFF0EE402AF4EEE23AF1EE10FADE
:1022700002D283EEA24A01E082EEA34A9FED4A0A0F
:10228000B4EEC04AF1EE10FA02D2F0EE441A2DE09C
:10229000DFED460AB6EE000A14EE200AF0EE404AE0
:1022A000BDEEE40A10EE100A00EE100AB8EEC00A05
:1022B00034EEC00AF0EE404A3D4A02EB800292ED55
:1022C000000AF0EE401A3A4B421C03EB820292EDF8
:1022D000000A1A4602EB8002D2ED000A70EE600A94
:1022E000B0EE610A00EEA40AF0EE401AF4EEE32A22
:1022F000F1EE10FA20DDB5EEC02AF1EE10FA0ADB9D
:10230000B5EEC03AF1EE10FA02DBB0EE611A39E038
:10231000B1EE611A36E09FED271AB5EEC03AF1EE44
:1023200010FA04DB31EE610AB0EE401A2AE031EE19
:10233000C10AB0EE401A25E0B5EEC03AF1EE10FA4F
:1023400010DB9FED1D1AB5EEC02AF1EE10FA04DB8A
:1023500031EE610AB0EE401A14E031EE210AB0EE1F
:10236000401A0FE09FED151AB5EEC02AF1EE10FAF3
:1023700004DB31EE210AB0EE401A03E031EE610ACF
:10238000B0EE401AB0EE410A00BD00B50C48FFF7B0
:10239000E2FE00BD00000000000034430000B44332
:1023A000000034C3DF59375F8180803B00008043E9
:1023B000584E0008DB0F4940DB0FC93FDB0FC9BF98
:1023C0006E000020704710B50446914200DA1146B5
:1023D000994200DD1946084610BD10B504469142E9
:1023E00000DA1146994200DD1946084610BD10B5C5
:1023F0000446914200D21146994200D91946084636
:1024000010BD10B50446914200DA1146994200DD34
:102410001946084610BDB4EEE00AF1EE10FA01D2FA
:10242000B0EE600AB4EEC10AF1EE10FA01DDB0EED2
:10243000410A704700B50248FFF7C4FF00BD000025
:102440006F000020F0EE400A9FEDC40A20EE800AE3
:102450007047F0EE400A9FEDC20A20EE800A7047F6
:1024600010B52DED028B0446B0EE408A18EE100A2E
:1024700020F00041C1F1FF41C90F21B19FEDB90A20
:10248000BDEC028B10BDB7EE000AB4EEC08AF1EECF
:1024900010FA02DB9FEDB40AF2E7BFEE000AB4EED9
:1024A000C08AF1EE10FA02D89FEDB00AE8E7B0EE6C
:1024B000480A02F01DF9E3E790ED010AD0ED030AA6
:1024C00020EE200AD0ED000A90ED021A00EEC10ABB
:1024D000F0EE000A20EE200A81ED000A90ED000ADD
:1024E000D0ED010A20EE200AD0ED020A90ED031A89
:1024F00000EE810AF0EE000A20EE200A81ED010ACA
:1025000090ED010A20EE000AD0ED020A90ED021AC9
:1025100000EE810AF7EE000AB0EE001A41EE400A22
:10252000C1ED020A7047D1ED000AF1EE600A90EDAC
:10253000011A60EE810A91ED011AD0ED021A41EE06
:10254000610A91ED021AD0ED031A41EE610A90ED95
:10255000001AF6EE001A60EE211A01EEA01A80EDC4
:10256000001AD1ED000A90ED001A60EE810A91ED9B
:10257000011AD0ED031A41EE610A91ED021AD0ED75
:10258000021A41EE210A90ED011AF6EE001A60EEF1
:10259000211A01EEA01A80ED011AD1ED000A90ED8A
:1025A000031A60EE810A91ED011AD0ED001A41EE96
:1025B000210A91ED021AD0ED011A41EE610A90ED67
:1025C000021AF6EE001A60EE211A01EEA01A80ED52
:1025D000021AD1ED000AF1EE600A90ED021A60EEE7
:1025E000810A91ED011AD0ED011A41EE210A91ED17
:1025F000021AD0ED001A41EE210A90ED031AF6EE10
:10260000001A60EE211A01EEA01A80ED031A70473D
:1026100010B52DED028B0446D4ED000A60EEA00A41
:1026200094ED011AD4ED011A41EE210A94ED021A3B
:10263000D4ED021A41EE210A94ED031AD4ED031AE7
:1026400041EE210AB0EE600A02F0E4F8F7EE000A6B
:1026500080EE801AB0EE418A94ED000A20EE080A5E
:1026600084ED000A94ED010A20EE080A84ED010AC7
:1026700094ED020A20EE080A84ED020A94ED030AA2
:1026800020EE080A84ED030ABDEC028B10BD2DE993
:10269000F0412DED028B04460D4616461F466DB3E4
:1026A00094ED011A21EE011AD4ED021A94ED022ADA
:1026B00001EE821AF7EE001AB0EE002A42EE411A3D
:1026C000F0EE610A94ED001AD4ED011A21EE211A00
:1026D000D4ED021A94ED032A01EE821AF0EE001AEC
:1026E00021EE211AB0EE410A2148FFF79EFDB0EE1F
:1026F000408A2046FFF7ADFE85ED000ADEB1D4ED3D
:10270000000A94ED021A60EE810A94ED011AD4EDEC
:10271000031A41EE610AB0EE001A60EE810AB0EED3
:10272000600A2046FFF79CFEB0EE408A2046FFF785
:1027300090FE86ED000ABDEC028BBDE8F0810D48ED
:10274000B7EE000A80ED000A9FED060A80ED030A4D
:1027500080ED020A80ED010A00BF704734FA8E3C1A
:10276000E12E654200000000DB0FC93FDB0FC9BF4F
:102770006E000020E001002009488047094800471A
:10278000FEE7FEE7FEE7FEE7FEE7FEE7FEE7FEE721
:10279000FEE7FEE704480549054A064B704700007E
:1027A000932800088901000850020020500E0020E4
:1027B00050060020500600200CB50020019000902B
:1027C0007548006840F480307349086000BF724863
:1027D000006800F4003000900198401C01900098BF
:1027E00018B90198B0F5A04FF1D16B48006810F40A
:1027F000003F02D00120009001E0002000900098EE
:10280000012845D164484030006840F0805062495A
:10281000403108606148006840F440405F4908600A
:102820005D48083000685C49083108600846006867
:1028300040F4004008600846006840F4A05008607A
:102840005748091F0860081F006840F08070091F82
:10285000086000BF5048006810F0007FFAD040F2D6
:102860000570504908604C480830006820F00300AB
:102870004949083108600846006840F002000860D5
:1028800000BF45480830006800F00C000828F8D167
:102890000CBD10B54448006840F47000424908601F
:1028A0003D48006840F001003B49086000203A497B
:1028B00008310860384800683C49084036490860DB
:1028C0003B48091D0860081F006820F48020091F8C
:1028D0000860002030490C310860FFF76DFF4FF0B1
:1028E000006031498039086010BD70B500200022B9
:1028F000022300240221284D08352D6805F00C0024
:1029000020B1042806D0082834D107E0294D2A4EEA
:10291000356033E0294D284E35602FE01E4D2D1DCA
:102920002D68C5F380541C4D2D1D2D6805F03F0109
:1029300054B1224DB5FBF1F5174E361D3668C6F37E
:10294000881605FB06F209E01A4DB5FBF1F5124EAB
:10295000361D3668C6F3881605FB06F20E4D2D1D92
:102960002D68C5F301456D1C6B00B2FBF3F5124EEB
:10297000356003E00F4D104E356000BF00BF064DBF
:1029800008352D68C5F303150D4E705D0A4D2D6891
:10299000C540094E356070BD0038024000700040EF
:1029A00008544007003C024088ED00E0FFFFF6FEBF
:1029B000103000240024F4007000002000127A007F
:1029C0007400002033490143334A1160704770B5E9
:1029D000002100230F22C47824B32F4C246804F470
:1029E000E064C4F5E064C4F30721C1F10404E3B278
:1029F0000A4144789C40E1B28478144021430C079A
:102A0000210E264C05786155047804F01F05012439
:102A1000AC4005786D114FF0E02606EB8505C5F852
:102A2000004109E0047804F01F040125A5401C4C76
:102A30000678761144F8265070BD1A4A0A400243BF
:102A4000154B1B1F1A60704739B1134A121D1268CB
:102A50000243114B1B1D1A6006E00F4A121D12683B
:102A600082430D4B1B1D1A607047042808D14FF09C
:102A7000E021096941F004014FF0E022116107E013
:102A80004FF0E021096921F004014FF0E0221161CB
:102A9000704700000000FA050CED00E000E400E0E3
:102AA00080E100E080FFFF1F10B50446FE4884422D
:102AB00009D10121480601F0ABFC00214FF0007064
:102AC00001F0A6FC08E00121880601F0A1FC00212C
:102AD0004FF0806001F09CFC10BD30B50246002034
:102AE0000023146824F002041460146844F0010404
:102AF000146000E05B1C546814F0010F03D1A3F5CF
:102B00007F44FF3CF6D1546814F0010F01D100203E
:102B10006CE08C79012C04D1146844F080041460BA
:102B200003E0146824F080041460CC79012C04D1F3
:102B3000146844F04004146003E0146824F0400476
:102B400014600C7A012C04D1146844F02004146041
:102B500003E0146824F0200414604C7A012C04D1A2
:102B6000146844F01004146003E0146824F01004A6
:102B700014608C7A012C04D1146844F008041460A9
:102B800003E0146824F008041460CC7A012C04D10A
:102B9000146844F00404146003E0146824F004048E
:102BA00014608C78A407CD7844EA05640D7944EA72
:102BB00005444D7944EA05540D886D1E2C43D461BB
:102BC000146824F001041460002300E05B1C5468C6
:102BD00014F0010F03D0A3F57F44FF3CF6D15468F5
:102BE00014F0010F01D0002000E0012030BD10B52D
:102BF0000021837A012202FA03F1AC4A126842F002
:102C00000102AA4B1A60A94A1C3212688A43A74BD8
:102C10001C331A60027BCAB9A44A0C3212688A4378
:102C2000A24B0C331A604288C38842EA03439F4A8E
:102C30004032847A42F834300288838842EA03437F
:102C40009A4A4032847A02EBC4025360027B012A22
:102C500019D1964A0C3212680A43944B0C331A600D
:102C60004288038842EA0343904A4032847A42F819
:102C70003430C288838842EA03438C4A4032847AE3
:102C800002EBC4025360C27A3AB9884A121D126834
:102C90008A43864B1B1D1A6006E0844A121D126887
:102CA0000A43824B1B1D1A60028932B97F4A1432D3
:102CB00012688A437D4B14331A600289012A06D1B7
:102CC0007A4A143212680A43784B14331A60427BF2
:102CD000012A06D1754A1C3212680A43734B1C3311
:102CE0001A60724A126822F00102704B1A6010BD1D
:102CF00000218171C171017241728172C172817052
:102D0000C1700321017102214171012101807047CD
:102D10006649096841F00101644A11601146096879
:102D200043F60E729143614A11601146096841EA07
:102D3000002111601146096821F0010111607047FE
:102D400021B1026842F48032026003E0026822F49A
:102D5000803202607047E1B1026842F08002026096
:102D60004FF4C272125842F480734FF4C27213507F
:102D70004FF4CA72125842F480734FF4CA7213505F
:102D80004FF4D272125842F480734FF4D27213503F
:102D90001BE0026822F0800202604FF4C2721258F7
:102DA00022F480734FF4C27213504FF4CA72125857
:102DB00022F480734FF4CA7213504FF4D272125837
:102DC00022F480734FF4D2721350704710B502464C
:102DD0000020936803F08063B3F1806F00D110E0AE
:102DE000936803F00063B3F1006F01D1012008E0A4
:102DF000936803F08053B3F1805F01D1022000E0BB
:102E00000420042879D002F5C07303EB00131B687B
:102E100003F0010402F5C07303EB00131C600B7A8E
:102E20007BB94B7A0C8843EA445302F5C07404EB37
:102E300000142468234302F5C07404EB00142360DB
:102E400010E00B7A4C6843EAC4034C7A234302F542
:102E5000C07404EB00142468234302F5C07404EB2F
:102E6000001423608B7A03F00F038B7202F5C0739A
:102E700003EB00135B6823F00F0402F5C07303EB50
:102E800000135C6002F5C07303EB00135B688C7A7F
:102E9000234302F5C07404EB001463608B7B1C06B3
:102EA0004B7B44EA034403E00064004000660040BA
:102EB0000B7B44EA0323CC7A234302F5C07404EB72
:102EC0000014A3608B7C1C064B7C44EA03440B7CFF
:102ED00044EA0323CC7B234302F5C07404EB0014C3
:102EE000E36002F5C07303EB00131B6843F00104B9
:102EF00002F5C07303EB00131C6010BD10B5024651
:102F0000002321B1012907D002290FD109E09068DF
:102F1000F84C00EA04030BE09068F74C00EA040365
:102F200006E09068F54C00EA040301E0002300BFCE
:102F300000BFF34C181BA34216D007DC83B16FF01F
:102F4000806018180ED0022818D111E0B0F5007F6B
:102F500010D0EC4C001909D0B0F5003F0ED10BE0B9
:102F600002230DE000230BE0002309E0002307E02B
:102F7000012305E0012303E0012301E0002300BF5A
:102F800000BFD8B210BD21B1012907D002290FD14D
:102F900009E0826842F0800282600AE0826842F4BE
:102FA0000042826005E0826842F40002826000E034
:102FB00000BF00BF704710B500F5D87303EB0113D5
:102FC0001B6803F004031372137A53B900F5D87326
:102FD00003EB01131B6840F2FF7404EA53531360C0
:102FE00009E000F5D87303EB01131B686FF0604430
:102FF00004EAD303536000F5D87303EB01131B6895
:1030000003F00203537200F5D87303EB01135B68FE
:1030100003F00F03937200F5D87303EB01135B68A1
:103020001B0AD37400F5D87303EB01139B68D372AA
:1030300000F5D87303EB01139B681C0A147300F5A9
:10304000D87303EB01139B681C0C547300F5D87301
:1030500003EB01139B681B0E937300F5D87303EB0E
:103060000113DB68D37300F5D87303EB0113DB683E
:103070001C0A147400F5D87303EB0113DB681C0CF5
:10308000547400F5D87303EB0113DB681B0E9374C3
:1030900021B9C36843F02003C36003E0036943F030
:1030A0002003036110BD21B9C26842F02002C26052
:1030B00003E0026942F020020261704702460020EC
:1030C00019B9D36803F0030006E0012903D113699D
:1030D00003F0030000E00020704710B502460B46E5
:1030E00000204FF6FF71BBB9146824F0020444F0CD
:1030F0000104146000E0491E546804F00304012C2C
:1031000001D00029F7D1546804F00304012C01D048
:10311000002032E0012030E0012B13D1146824F0AC
:103120000304146000E0491E546814F0030F01D03A
:103130000029F8D1546814F0030F01D000201CE0DE
:1031400001201AE0022B17D1146824F0010444F086
:103150000204146000E0491E546804F00304022CC9
:1031600001D00029F7D1546804F00304022C01D0E7
:10317000002002E0012000E0002010BD01460020F8
:103180000A6822F0010242F002020A604A6802F074
:103190000302022A00D10120704701464FF6FF7258
:1031A00000200B6823F002030B6000E0521E4B6806
:1031B00003F00203022B01D1002AF7D14B6803F080
:1031C0000203022B00D001207047014600208A69CB
:1031D00002F070007047014600208A69100E7047A7
:1031E000014600208A69C2F3074070471AB143695B
:1031F0000B43436102E043698B434361704710B561
:103200000246002011F4700F08D09369C1F3130433
:10321000234201D001202DE000202BE011F0807F1F
:1032200008D05368C1F31304234201D0012021E0E8
:1032300000201FE011F0006F08D09368C1F3130461
:10324000234201D0012015E0002013E011F0007F9F
:1032500008D0D368C1F31304234201D0012009E050
:10326000002007E01369C1F31304234201D00120B9
:1032700000E0002010BD0022234B994202D1002320
:10328000836111E0C1F3130211F0007F01D0C2602D
:103290000AE011F0806F01D0026105E011F0006FCB
:1032A00001D0826000E042607047024600200A427E
:1032B00001D0012000E00020704770B504460D46A3
:1032C00000266069284272D0B5F5807F69D01DDC88
:1032D000082D42D006DC012D2DD0022D31D0042D39
:1032E0007FD134E0102D3ED0202D42D0402D78D11A
:1032F00045E0000003000004000300080000031084
:10330000000100080001FFF77000F030B5F5004F34
:1033100061D009DCB5F5007F4AD0B5F5806F4DD09E
:10332000B5F5006F5DD150E0B5F5803F2DD0B5F516
:10333000003F56D12FE0A0685549FFF7B6FF06467B
:1033400051E0E0680321FFF7B0FF06464BE0E0687C
:103350000821FFF7AAFF064645E0E0681021FFF7C5
:10336000A4FF06463FE020690321FFF79EFF0646C3
:1033700039E020690821FFF798FF064633E020690D
:103380001021FFF792FF06462DE060680821FFF745
:103390008CFF064627E060681021FFF786FF06468F
:1033A00021E0A0690121FFF780FF06461BE01BE03A
:1033B000A0690221FFF779FF064614E0A069042105
:1033C000FFF773FF06460EE00BE0A0697021FFF7E0
:1033D0006CFF064607E060680421FFF766FF0646BB
:1033E00001E0002600BF00E00026304670BDB1F5C8
:1033F000007F3AD00FDC202928D006DC01291CD020
:1034000004291DD0082940D11DE0402921D0B1F563
:10341000807F3AD126E0B1F5004F31D006DCB1F51E
:10342000806F25D0B1F5006F2FD124E0B1F5803F3A
:1034300012D0B1F5003F28D111E0154A826025E095
:103440000822C26022E01022C2601FE0082202614E
:103450001CE01022026119E00822426016E01022EE
:10346000426013E00422426010E0042242600DE05A
:10347000042242600AE0002282610422426005E0E8
:10348000002282610422426000E000BF00BF70475A
:1034900001010100016821F00101016000210160CA
:1034A00041608160C160016121214161DA49884246
:1034B00004D13D21D84A103A91608CE0D6491831A8
:1034C000884205D14FF47461D34A103A916082E08A
:1034D000D1493031884205D14FF47411CE4A103AA7
:1034E000916078E0CC494831884205D14FF0746151
:1034F000C94A103A91606EE0C7496031884204D1F0
:10350000C649C54A103AD16065E0C349783188425E
:1035100004D1C349C04A103AD1605CE0BE49903141
:10352000884204D1BF49BC4A103AD16053E0BA493D
:10353000A831884205D14FF03D51B74A103AD160C9
:1035400049E0B949884204D13D21B74A083A11609F
:1035500041E0B5491831884205D14FF47461B24A4F
:10356000083A116037E0B0493031884205D14FF454
:103570007411AD4A083A11602DE0AB4948318842D8
:1035800005D14FF07461A84A083A116023E0A649BA
:103590006031884204D1A149A34A121F11601AE088
:1035A000A1497831884204D19D499F4A121F116078
:1035B00011E09D499031884204D19A499A4A121FDC
:1035C000116008E09849A831884204D14FF03D517C
:1035D000954A121F1160704710B500220268934B84
:1035E0001A40CC680B6823434C6923438C692343FE
:1035F000CC6923430C6A23434C6A23438C6A2343DC
:103600004C6B23438C6B23431A430260426922F0C4
:103610000702D1E90B3423431A4342610B6943602B
:103620004B6883608B68C36010BD002101604160FE
:103630008160C160016141618161C161016241627A
:103640008162C162016341638163704721B1026895
:1036500042F00102026003E0026822F0010202600F
:10366000704721B1026842F40042026003E0026840
:1036700022F400420260704721B1026842F0200249
:10368000026003E0026822F020020260704741609D
:1036900070470146486880B2704722B1036843F41E
:1036A0000023036003E0036823F400230360016147
:1036B000704721B1026842F48022026003E0026890
:1036C00022F48022026070470AB1016100E0C1600B
:1036D0007047014600200A6812F4002F01D0012033
:1036E00000E000207047014600200A6812F0010F38
:1036F00001D0012000E000207047014600204A6907
:1037000002F03800704730B503460A460020002416
:10371000454DAB4202D24049103901E042491039CF
:1037200012F0005F01D04C6800E00C68404D2C4066
:10373000144201D0012000E0002030BD02463A4B87
:103740009A4202D23448103801E03748103811F05C
:10375000005F03D0364B0B40C36002E0344B0B409C
:103760008360704710B511F0800F09D022B1436912
:1037700043F08003436103E0436923F08003436126
:1037800080290BD02AB1036801F01E042343036093
:1037900004E0036801F01E04A343036010BD70B58C
:1037A00002460020002400251F4EB24202D21A4BCE
:1037B000103B01E01C4B103B1E4E314206D01E2632
:1037C00006EAD124166806EA040502E0566906F006
:1037D000800511F0005F01D05C6800E01C68144EA9
:1037E00034400C4202D00DB1012000E0002070BD39
:1037F00002460D4B9A4202D20748103801E00A48AF
:10380000103811F0005F03D0094B0B40C36002E099
:10381000074B0B4083607047106002403D00002062
:10382000400F002000003D20106402403F801CF04B
:103830007D0F7D0F3C0F3C0F10B504469848844225
:1038400008D10121084600F0B0FD0021012000F060
:10385000ACFD76E09348844208D10121022000F0BB
:10386000A4FD0021022000F0A0FD6AE08E48844201
:1038700008D10121042000F098FD0021042000F06F
:1038800094FD5EE08948844208D10121082000F0BF
:103890008CFD0021082000F088FD52E0844884421D
:1038A00008D10121102000F080FD0021102000F03F
:1038B0007CFD46E07F48844208D10121202000F0B1
:1038C00074FD0021202000F070FD3AE07A48844227
:1038D00008D10121402000F068FD0021402000F0C7
:1038E00064FD2EE07548844208D10121802000F05B
:1038F0005CFD0021802000F058FD22E070488442E9
:1039000008D10121801500F050FD0021A01500F024
:103910004CFD16E06B48844208D10121401500F0AF
:1039200044FD0021601500F040FD0AE06648844235
:1039300007D10121001500F038FD0021201500F00D
:1039400034FD10BDF0B50A4600210023002400BF5D
:103950003DE0012505FA01F3156805EA03049C42E0
:1039600034D105684F000326BE40B5430560157984
:103970004E00B5400668354305601579012D02D02B
:103980001579022D16D185684F000326BE40B54338
:10399000856055794E00B540866835438560456839
:1039A00001268E40B5434560456896798E40B6B293
:1039B00035434560C5684F000326BE40B543C5602A
:1039C000D5794E00B540C6683543C560491C1029FD
:1039D000BFD3F0BD4FF6FF7101600021017141714D
:1039E0008171C171704708B54FF480320092009A1E
:1039F0000A430092009AC261C161009AC261C26921
:103A00000092C269009208BD0246002013690B4271
:103A100001D0012000E0002070470146086980B213
:103A200070470246002053690B4201D0012000E09C
:103A3000002070470146486980B270470183704793
:103A4000418370470AB1018300E0418370474161BF
:103A5000704742694A4042617047F0B50023002434
:103A60004D07ED0E02FA05F3CE1000F1200555F8D2
:103A700026504E07F70E0F26BE40B543CF1000F17B
:103A8000200646F82750CE1000F1200555F82650A4
:103A900045EA0304CE1000F1200545F82640F0BDAC
:103AA000000002400004024000080240000C0240F6
:103AB000001002400014024000180240001C0240A6
:103AC00000200240002402400028024010B50446B5
:103AD000FA48844208D10121102000F0AAFC0021FC
:103AE000102000F0A6FC57E0F548844209D10121DE
:103AF000480400F08DFC00214FF4003000F088FCF9
:103B00004AE0F048844209D10121880400F080FC99
:103B100000214FF4802000F07BFC3DE0EA48844225
:103B200009D10121C80400F073FC00214FF40020EA
:103B300000F06EFC30E0E548844209D1012108051F
:103B400000F066FC00214FF4801000F061FC23E0DF
:103B5000DF48844208D10121202000F06AFC0021C6
:103B6000202000F066FC17E0DA48844209D10121E8
:103B7000880700F04DFC00214FF0804000F048FC29
:103B80000AE0D548844207D10121400500F040FCFD
:103B90000021600500F03CFC10BD2DE9FF47054603
:103BA0000E460024A14600BFA046B08900B100BF68
:103BB0002C8A24F44054F08804432C82AC8941F2CE
:103BC0000C608443B08831890843718908430443F9
:103BD000AC81AC8A24F44074B0890443AC8268465A
:103BE00000F0A7FAB548854202D0B948854202D113
:103BF000DDF80C9001E0DDF80890A88910F4004F82
:103C000008D009EBC90000EB091031684900B0FB8E
:103C1000F1F707E009EBC90000EB091031688900F2
:103C2000B0FBF1F76420B7FBF0F004012009642138
:103C300001FB1078A88910F4004F08D0322000EB67
:103C4000C800B0FBF1F000F00700044308E03220A8
:103C500000EB08106421B0FBF1F000F00F0004430A
:103C60002C81BDE8FF874FF416510160002181804F
:103C7000C18001810C21418100218181704710B5F3
:103C800002460020108A20F470600B884C88234381
:103C90008C882343CC8823431843108210BD002115
:103CA000018041808180C180704721B1828942F4C6
:103CB0000052828104E082894DF6FF731A408281AE
:103CC0007047028B02F47F420283028B0A43028315
:103CD000704721B1828942F40042828103E08289E7
:103CE000C2F30E028281704721B1828A42F40062DF
:103CF000828204E0828A4FF2FF731A408282704708
:103D0000C1F308028280704701468888C0F308002A
:103D10007047028A4FF6F0731A400282028A0A4301
:103D20000282704721B1828942F00202828104E05E
:103D300082894FF6FD731A408281704782894FF263
:103D4000FF731A40828182890A4382817047028A06
:103D50004FF6DF731A400282028A0A4302827047DA
:103D600021B1028A42F48042028204E0028A4BF6C8
:103D7000FF731A4002827047818941F001018181FD
:103D8000704721B1828A42F00802828204E0828A6E
:103D90004FF6F7731A4082827047028BD2B20283C9
:103DA000028B42EA01220283704721B1828A42F0EB
:103DB0002002828204E0828A4FF6DF731A408282F8
:103DC000704721B1828A42F01002828204E0828A26
:103DD0004FF6EF731A4082827047828A4FF6FB7368
:103DE0001A408282828A0A438282704721B1828A83
:103DF00042F00202828204E0828A4FF6FD731A408A
:103E0000828270471AB1838A0B43838202E0838ADD
:103E10008B4383827047F0B50346002400260025BB
:103E20000020A1F510676A3F00D100BF1846C1F31A
:103E3000421401F01F06012707FA06F5012C01D1F3
:103E40000C3004E0022C01D1103000E014301AB123
:103E500007682F43076002E00768AF430760F0BDC3
:103E600002460020B1F5007F00D100BF13880B424D
:103E700001D0012000E00020704701F40072B2F58B
:103E8000007F00D100BFCA430280704770B5024670
:103E90000024002300250020A1F510666A3E00D111
:103EA00000BFC1F3421501F01F03012606FA03F318
:103EB000012D13D19689334017E000000010014016
:103EC0000044004000480040004C004000500040CA
:103ED0000014014000780040007C0040022D02D117
:103EE000168A334001E0968A33400C12012606FA06
:103EF00004F41688344013B10CB1012000E0002016
:103F000070BD10B500220023A1F510646A3C00D1F9
:103F100000BF0A1201249440A3B2DC43048010BD08
:103F2000F948006840F00100F74908600020F649B0
:103F300008310860F4480068F4490840F249086014
:103F4000F348091D0860F348EF4984310860F048E0
:103F50001038091D0860EC48006820F48020EA4908
:103F600008600020E8490C310860E7498C3108609E
:103F700070470021E44A921C117011460870704786
:103F800010B501460022002300204A11012A02D167
:103F9000DD4C236808E0022A03D1DB4C703423682F
:103FA00002E0D94C7434236801F01F0201249440CC
:103FB0001C4201D0012000E0002010BD38B50020D7
:103FC00000900024002500BF3120FFF7D9FF0546EF
:103FD0000098401C00900098B0F5A04F01D0002D33
:103FE000F2D03120FFF7CCFF08B1012400E000241B
:103FF000204638BD01460020C34A106820F0F80072
:1040000040EAC10010607047C34908607047002152
:10401000BD4A703211701170012802D004280AD1F3
:1040200004E00121B84A7032117005E00521B64A5A
:104030007032117000E000BF00BF7047B7490860E0
:10404000704770B5049C41EA82150126C6EB530601
:1040500045EA0645054345EA0465AB4E361D356025
:1040600070BDAD4908667047820142EA0172A64BF5
:1040700084331A607047A8498866704710B5830179
:1040800043EA016343EA02739F4C8834236010BD06
:10409000A14908677047A049C864704702460020DC
:1040A000994B0833186820F0EC6042EA010318438A
:1040B000954B08331860704702460020924B083336
:1040C000186820F0784042EA010318438E4B083309
:1040D00018607047014600208B4A0832106820F0B3
:1040E000030008431060704787480830006800F0FC
:1040F0000C00704701460020834A0832106820F007
:10410000F000084310607047014600207E4A0832E4
:10411000106820F4E050084310607047014600200A
:10412000794A0832106820F4604040EAC10010600B
:104130007047F0B50021002200240225002602234A
:10414000714F08373F6807F00C0121B1042905D0F1
:10415000082937D105E0724F076036E0714F0760DC
:1041600033E0694F3F1D3F68C7F38056664F3F1DE0
:104170003F6807F03F036EB16A4FB7FBF3F7DFF814
:1041800088C10CF1040CDCF800C0CCF3881C07FBE0
:104190000CF40CE0624FB7FBF3F7DFF86CC10CF1E5
:1041A000040CDCF800C0CCF3881C07FB0CF4564F61
:1041B0003F1D3F68C7F301477F1C7D00B4FBF5F747
:1041C000076002E0564F076000BF00BF4E4F083740
:1041D0003F6807F0F0010909534F7A5C0768D74040
:1041E0004760494F08373F6807F4E051890A4E4F4E
:1041F0007A5C4768D7408760434F08373F6807F4C9
:104200006041490B484F7A5C4768D740C760F0BDB2
:10421000002100F44072B2F5407F0AD13A4A0832D8
:10422000116821F4F811414A02401143364A08321C
:104230001160354A70321268C0F30B031A43324BD7
:1042400070331A6070473549443908607047334904
:1042500040390860704736490860704701460020C1
:10426000294A8C32106820F01F004A1E1043264A4B
:104270008C321060704701460020234A8C3210684F
:1042800020F4F8504A1E40EA02201F4A8C32106087
:104290007047014600201C4A8C32106820F4401000
:1042A00008431060704701460020174A8C3210689E
:1042B00020F4400008431060704701460020124A75
:1042C0008C32106820F44030084310607047194960
:1042D0000860704739B10C4A3032126802430A4B09
:1042E00030331A6006E0084A303212688243064BC7
:1042F00030331A607047F9B1034A3432126802430E
:10430000014B34331A601CE000380240FFFFF6EA2C
:10431000103000240030002000004742800E474249
:104320000024F40000127A0084000020FFFCFF0F3C
:104330005C014742E01147428F4A126882438E4B2C
:104340001A60704739B18C4A121D126802438A4BB9
:104350001B1D1A6006E0884A121D12688243864BB4
:104360001B1D1A60704739B1834A0C321268024330
:10437000814B0C331A6006E07F4A0C32126882438C
:104380007D4B0C331A60704739B17B4A103212688A
:104390000243794B10331A6006E0774A10321268F4
:1043A0008243754B10331A60704739B1724A243A10
:1043B00012680243704B243B1A6006E06E4A243AAE
:1043C000126882436C4B243B1A60704739B16A4AC9
:1043D000203A12680243684B203B1A6006E0664AA6
:1043E000203A12688243644B203B1A60704739B10F
:1043F000614A1C3A126802435F4B1C3B1A6006E09C
:104400005D4A1C3A126882435B4B1C3B1A60704742
:1044100039B1594A143A12680243574B143B1A6097
:1044200006E0554A143A12688243534B143B1A6013
:10443000704739B1504A103A126802434E4B103B54
:104440001A6006E04C4A103A126882434A4B103B0D
:104450001A60704739B1484A1C3212680243464B11
:104460001C331A6006E0444A1C3212688243424BF5
:104470001C331A60704739B13F4A20321268024338
:104480003D4B20331A6006E03B4A203212688243DB
:10449000394B20331A60704739B1374A24321268D9
:1044A0000243354B24331A6006E0334A2432126843
:1044B0008243314B24331A60704739B12E4A2C3273
:1044C000126802432C4B2C331A6006E02A4A2C3225
:1044D00012688243284B2C331A60704739B1264A40
:1044E000303212680243244B30331A6006E0224A0D
:1044F000303212688243204B30331A6070470128F3
:1045000008D11D493C31096841F008011A4A3C3282
:10451000116007E018493C31096821F00801164A8A
:104520003C321160704739B1134A273A127802437E
:10453000114B273B1A7006E00F4A273A1278824344
:104540000D4B273B1A7070470B484030006840F015
:104550008070094940310860704701460020064AD2
:10456000283A12680A4201D0012000E0002070477A
:104570000149263908707047343802407047704747
:104580007047000070B5064C7C44064D7D4403E046
:10459000206820448047241DAC42F9D170BD000042
:1045A000F00C0000200D000010B500F009F80068C4
:1045B00010BD10B5044600F003F8046010BD000003
:1045C00000487047F001002000487047F0010020CB
:1045D0007546FFF7F9FFAE4605006946534620F0E1
:1045E0000700854618B020B5FEF7D4F8BDE8204096
:1045F0004FF000064FF000074FF000084FF0000B9F
:1046000021F00701AC46ACE8C009ACE8C009ACE851
:10461000C009ACE8C0098D4670470446AFF300807E
:104620002046FBF7FCFD704701491820ABBEFEE7B2
:104630002600020091ED000A80ED000A91ED010ACA
:1046400080ED010A91ED020A80ED020A7047000038
:104650009FED040A80ED020A80ED010A80ED000A58
:10466000704700000000000080ED000AC0ED010A64
:1046700080ED021A704770B506460C46154694ED5B
:10468000000AD5ED000A30EE200A84ED000A94ED10
:10469000010AD5ED010A30EE200A84ED010A94EDFD
:1046A000020AD5ED020A30EE200A84ED020A214604
:1046B0003046FFF7BFFF064670BD4100080218BF35
:1046C00004200A0E18BF40F001004FF07F4232EA8A
:1046D000010108BF40F00200012808BF0520704713
:1046E000016809B100207047012101600846704748
:1046F00010B54FF00E402DED048BB0EE408A18EE51
:10470000104A9FED3A9A00EB4400B0F1506F23D964
:104710004FF0E440B0EB440F0CD918EE100AFFF74D
:10472000CCFF042808BF00F093F8B0EE480ABDECB7
:10473000048B10BD4FF07F40B0EB440F3EBF38EE0E
:10474000080ABDEC048B10BD0120FFF732FF89EE93
:10475000090ABDEC048B10BD4FF0FC40B0EB440FD8
:1047600024BFF0EE499A68EE088A21D2B0EEC80A5A
:10477000F7EE000A30EEC00AF6EE000A60EE208A7C
:1047800018EE900A00F06CF800EE100A14F0004FDA
:104790001DBFDFED179A9FED179AB1EE400ADFEDCE
:1047A000169A08BF9FED159AF8EE000A20EE208AAF
:1047B0009FED130ADFED130A28EE281A48EE800A4F
:1047C0009FED110A08EEA00ADFED100A48EE800AFC
:1047D0009FED0F0A08EEA00A79EE080A41EE000AE2
:1047E00030EEA90ABDEC048B10BD000000000000F3
:1047F0000000C9BF22AAFDB90000C93F22AAFD39A5
:1048000024FE1C3DC78AD83C1E67383D1B93993D4A
:10481000AFAA2A3E10B52DED028BB1EEC08A18EE7C
:10482000100A20F00040C0F1FF40C00F0AD010EE87
:10483000100A20F00040C0F1FF40C00F04BF01206B
:10484000FFF7B7FEB0EE480ABDEC028B10BD0000CA
:104850009FED020A20EE000A7047000000000010E1
:1048600010B500EE100A2DED028BB1EEC08A18EEE5
:10487000100A20F00040C0F1FF40C00F0AD010EE37
:10488000100A20F00040C0F1FF40C00F04BF01201B
:10489000FFF78FFE18EE100ABDEC028B10BD000072
:1048A00010B591EA030F48BF83F0004300F1EC819B
:1048B000841A71EB030C05D2121943EB0C03001B95
:1048C00061EB0C01DFF824E14FEA1154A4EB135C17
:1048D0001EEA430F18BF9EEA445F73D023EA0E031B
:1048E000DCF1200E21EA045143F4801332D322FA82
:1048F0000CFE10EB0E0023FA0CFE41EB0E01CCF186
:10490000200E03FA0EFE10EB0E0051F10001B1F57E
:10491000801FCCF1200E32D201EB045112FA0EF2BC
:10492000BDE8104058BF7047401C38BF5FEA4202E4
:1049300018BF7047002814BF20F0010041F10001AA
:104940004FEA410313F5001F38BF7047A1F1C04182
:1049500000F08CB9012A43EB0302ACF1200CDCF12E
:104960001F0E32BF4FF0000E23FA0CF310EB0300C2
:1049700041EB0451B4EB115FD0D0A1EB045101F530
:10498000801149085FEA300001EB04510ED350F169
:10499000000038BF12FA0EFE08D1BDE81040C9E78A
:1049A000401C38BF5FEA4202CAD1C3E7BDE81040ED
:1049B0004FEA410313F5001F38BF7047A1F1C04112
:1049C00000F054B99EEA445F08D011EA5E0FBDE8DA
:1049D000104004BF01F0004100207047BDE81040C6
:1049E00070B500F0F5F800BF64FBBE3E0000E0FFCC
:1049F0004FEA41034FEA5353A3F58063D3F11E03FB
:104A0000C8BFD3F1210C0CDD4FF0004242EAC122B5
:104A100042EA505232FA03FC8CEAE17CACEBE170E2
:104A20007047102BC4BF0020704703F5787CBCF1A1
:104A3000FF3F04D06FF0004282EA2100704770B55A
:104A400000F0C6F84992248000207047F2E710F089
:104A5000004248BF4042B0FA80F310FA03F10AD096
:104A6000C3F11D0303F580634FEA415002EB03528B
:104A700002EBD12170474FF000007047DFF848C1CA
:104A800070B51CEA111E1EBF1CEA13159EEA0C0F1E
:104A900095EA0C0F00F06F8081EA030423EA4C13BF
:104AA0004EEAD47E21EA4C1141F4801143F4801384
:104AB000AE44A1FB024CA0FB0365AEF17F7E36192C
:104AC00055EB0C05A1FB034C4CF10003A0FB021CB1
:104AD00016EB0C06654153F10003094218BF46F07E
:104AE000010613F4007F0BD14FEA03314FEA053082
:104AF000340341EA155140EA16506FF003020AE010
:104B00004FEAC3214FEAC520F40241EA555140EA79
:104B100056506FF0020202EB2E4201EB025585EA7D
:104B2000CE710AD05FEA440C18BF24F0004450F163
:104B3000000041F1000120EAD47040F2FE7C6245A1
:104B400000D270BDA84214BF4FF080444FF04044E3
:104B5000002E08BF0024BEF1806FA8BFA1F1C041A4
:104B6000BDE8704080F282804FF0000001F1C0414A
:104B700001F0004170479EEA0C0F0CEA131518BFB4
:104B800095EA0C0F06D04FF0000081EA030E0EF0FC
:104B9000004170BD00F01CF88900013E00F007B82C
:104BA00000F009B84FEA430C5FEA5C5C08D081EA88
:104BB000030100F05BB84FEA410C5FEA5C5CF6D1A0
:104BC0004FF00000014970470000FF070000F87F28
:104BD0000EF1020E2EF0030E5EF8046B364205D481
:104BE000012A43EB030515F5001F12D8012841EBFC
:104BF000010C1CF5001F0CD80ED14FEAD17C15F525
:104C0000001F0CEB4C0C0CF1020C08BF4CEBD37CDE
:104C100004E04FF0080C01E04FEAD37C0CEB4C05AC
:104C200026FA05F606F00706B6F1040C06D20EEBDE
:104C3000860CBDE870404CF0010C6047DFE80CF0DA
:104C4000090B02024FF000414FF00000A1F50021D6
:104C500070BD19461046012851EB010418BFD4F568
:104C6000001484BF002001F0004170BD0808A0F5C9
:104C700000114FEA3101704710B591EA030F48BFA8
:104C800083F000433FF514AE841A71EB030C07D296
:104C900012198CF0004C43EB0C03001B61EB0C0170
:104CA000DFF8A4E14FEA1154A4EB135C1EEA430FB2
:104CB00018BF9EEA445F00F0B08023EA6E035242C0
:104CC00021EA0451C3EB6E0338BF5B1EDCF1200EFA
:104CD00025D322FA0CFE10EB0E0043FA0CFE41EB3A
:104CE0000E01CCF1200E03FA0EFE10EB0E0051F176
:104CF0000001CCF1200E29D412FA0EF201EB04517E
:104D0000BDE8104058BF7047401C1CBFB2F1004FB7
:104D1000704700280CBF491C20F00100704712EBBF
:104D2000020E43EB030218BF4FF0010E4EEA42029F
:104D3000ACF1200CDCF11E0E54D943FA0CFE10EB42
:104D40000E0051F1FF31CCF11E0ED5D50EF1010E42
:104D500012FA0EFE404141EB010101EB445C5FEAB7
:104D60005C5C10D910EBDE7001EB045138BFBEF172
:104D7000004FBDE8104018BF704700280CBF491C09
:104D800020F00100704730D24FEAD42C11F5001109
:104D900024F400641BD0B1FA81F20B3AA41AA41EC9
:104DA000D2F12003914030FA03F31943904001EB14
:104DB000CC71002C01EB0451BDE81040A8BF704736
:104DC00001F1C0414FF0000001F000417047B0FA1E
:104DD00080F310FA03F100D110BDE41A173C480526
:104DE000C90AE4E701EB045110BD491001EB04517D
:104DF000BDE810404FEA300002E04FF0000170477C
:104E00004A0008BF0042F8D0B2F5001F28BF704723
:104E100001F000414FF0000070479EEA445F07D068
:104E200011EA5E0FBDE8104004BF0021002070476A
:104E3000BDE8104070B5FFF7CBFE00BF40DFF63E87
:104E400083F00041104670470000E0FF4FF04070D3
:104E5000E1EE100A70470000000000005680803B21
:104E6000D37F003C77BE403CCF7D803C5B9BA03C29
:104E7000A6B7C03C6ED2E03CB775003D3581103D11
:104E8000918B203DAB94303D609C403D92A2503DC3
:104E900025A7603DF1A9703D6F55803DE354883DE5
:104EA0004753903D8C50983D9F4CA03D7247A83D84
:104EB000F740B03D1B39B83DD22FC03D0C25C83D51
:104EC000B218D03DC60AD83D2DFBDF3DD9E9E73DFC
:104ED000B0D6EF3DBEC1F73DDBAAFF3D04C9033E9E
:104EE00095BB073E20AD0B3E979D0F3EF58C133EC4
:104EF000397B173E56681B3E3E541F3EF83E233E0C
:104F00007728273EB4102B3EA1F72E3E45DD323EDA
:104F100093C1363E7DA43A3E0A863E3E2766423E17
:104F2000D844463E12224A3EC7FD4D3EFED7513E72
:104F3000AFB0553EC687593E4B5D5D3E3731613E51
:104F40007C03653E1AD4683E0AA36C3E4770703EEF
:104F5000C83B743E8805783E86CD7B3EB5937F3E48
:104F60000EAC813E538D833EAE6D853E164D873E21
:104F70008D2B893E0F098B3E99E58C3E2BC18E3ED1
:104F8000C19B903E5475923EE94D943E7B25963EE2
:104F900007FC973E8BD1993E02A69B3E6F799D3EC2
:104FA000CD4B9F3E1C1DA13E57EDA23E7FBCA43EB3
:104FB0008D8AA63E8457A83E6223AA3E23EEAB3ECE
:104FC000C2B7AD3E4580AF3EA447B13EE20DB33E11
:104FD000F9D2B43EE996B63EB159B83E4F1BBA3E3F
:104FE000C2DBBB3E079BBD3E1E59BF3E0416C13E01
:104FF000BCD1C23E3F8CC43E8E45C63EA4FDC73EDA
:1050000089B4C93E336ACB3EA41ECD3EDAD1CE3E32
:10501000D583D03E9434D23E18E4D33E5A92D53E46
:10502000603FD73E21EBD83EA395DA3EE33EDC3E1F
:10503000E1E6DD3E9A8DDF3E0D33E13E3AD7E23EBA
:10504000227AE43EC51BE63E1BBCE73E2F5BE93EF1
:10505000F7F8EA3E7695EC3EA930EE3E93CAEF3E75
:105060003563F13E86FAF23E8F90F43E4925F63ED6
:10507000B9B8F73EDA4AF93EAFDBFA3E386BFC3E90
:1050800071F9FD3E5A86FF3EFC88003F234E013FEA
:10509000A212023F7BD6023FAC99033F365C043F2D
:1050A000171E053F51DF053FE39F063FCE5F073FD9
:1050B000121F083FADDD083FA29B093FEF580A3F92
:1050C00094150B3F93D10B3FE98C0C3F9A470D3F52
:1050D000A2010E3F03BB0E3FBF730F3FD32B103F08
:1050E00041E3103F089A113F2A50123FA405133F95
:1050F00079BA133FA86E143F3322153F18D5153FD8
:105100005787163FF138173FE7E9173F389A183F9E
:10511000E749193FEFF8193F55A71A3F18551B3FAC
:1051200037021C3FB3AE1C3F8E5A1D3FC4051E3FC5
:105130005AB01E3F4E5A1F3FA103203F52AC203FA2
:105140006354213FD3FB213FA4A2223FD548233FF4
:1051500067EE233F5A93243FAD37253F63DB253F5E
:105160007A7E263FF420273FD2C2273F1364283F90
:10517000B704293FBFA4293F2C442A3FFEE22A3F1F
:1051800033812B3FD11E2C3FD2BB2C3F3C582D3FAF
:105190000CF42D3F438F2E3FE1292F3FE9C32F3FD2
:1051A000595D303F33F6303F758E313F2126323F17
:1051B00039BD323FBB53333FA9E9333F027F343F10
:1051C000C713353FF9A7353F993B363FA6CE363F4B
:1051D0002161373F0BF3373F6484383F2E15393F49
:1051E00065A5393F0F353A3F2AC43A3FB4523B3F99
:1051F000B3E03B3F226E3C3F06FB3C3F5D873D3FBB
:1052000026133E3F679E3E3F1A293F3F44B33F3F30
:10521000E43C403FF9C5403F864E413F89D6413F7F
:10522000065E423FFAE4423F676B433F4FF1433F24
:10523000B076443F8CFB443FE27F453FB403463F9A
:105240000187463FCB09473F138C473FD70D483F67
:10525000198F483FDD0F493FDD0F493FB05200082D
:105260000000002094000000C4010008445300081E
:1052700094000020BC0D0000E0010008E9B3FFFF2E
:105280002BB5FFFF59B6FFFF4FB8FFFF1DBDFFFF56
:105290003FBEFFFF87C2FFFF23C8FFFF0DCAFFFF0E
:1052A00077CEFFFFE7D0FFFF8DD1FFFF93D4FFFF45
:1052B00000000000000000000000000000000000EE
:1052C00000000000000000000000000000000000DE
:1052D00000000000000000000000000000000000CE
:1052E00000000000000000000000000000000000BE
:1052F00000000000CDCC4C3D6F12033C9A99993EC2
:105300006F12033C000000000000000000000000DD
:10531000000000000000000000000000000000008D
:10532000007A030A000000000000000001020304EC
:10533000060708090000000001020304010203043B
:04534000060708094B
:040000050800018965
:00000001FF
